:0E0099007F647E001200A775A0FD7F647E00CC
:1000A700EF4E600F7D027CEFDCFEDDFCEF1F70F092
:0300B7001E80EDBB
:0100BA002223
:10000300E4FBFA20B156800320B1097F147E00126D
:1000130000A780F475A0FE12009975A0FB1200A33F
:1000230075A0F71200A375A0EF1200A375A0DF124D
:1000330000A375A0BF1200A375A07F1200A375A033
:10004300BF1200A375A0DF1200A375A0EF1200A3D7
:1000530075A0F71200A375A0FB12009920B0A4802D
:100063000320B1097F147E001200A780F47A007B7D
:1000730001C3EB9465EA648094805087E4F5A07F24
:1000830032FE1200A775A0FF7F327E001200A70B7D
:06009300BB00010A80DB46
:030000000200BB40
:0C00BB00787FE4F6D8FD75810702000391
:00000001FF
