:1005A700EF4E6010007D027CC7DCFEDDFCEF1F70A4
:0405B700EF1E80ECC7
:0105BB00221D
:10000300E4FBFAC2A0EBAE027802CEC313CE13D840
:10001300F9FF1205A7D2A0C374649BFFE49AFEEF15
:100023007802CEC313CE13D8F9FF1205A70BBB007A
:10003300010AEB64644A70CB7A007B64C2A0AF030D
:10004300AE021205A7D2A0C374649BFFE49AFEEF2D
:100053007802CEC313CE13D8F9FF1205A7EB1B709A
:10006300011AEB4A70D6E4FAFBC2A1EBAE027802A6
:10007300CEC313CE13D8F9FF1205A7D2A1C374645C
:100083009BFFE49AFEEF7802CEC313CE13D8F9FF99
:100093001205A70BBB00010AEB64644A70CB7A001C
:1000A3007B64C2A1EBAE027802CEC313CE13D8F9A0
:1000B300FF1205A7D2A1C374649BFFE49AFEEF78F5
:1000C30002CEC313CE13D8F9FF1205A7EB1B7001A1
:1000D3001AEB4A70CDE4FAFBC2A2EBAE027802CE71
:1000E300C313CE13D8F9FF1205A7D2A2C374649B1E
:1000F300FFE49AFEEF7802CEC313CE13D8F9FF12B2
:1001030005A70BBB00010AEB64644A70CB7A007B42
:1001130064C2A2EBAE027802CEC313CE13D8F9FFAA
:100123001205A7D2A2C374649BFFE49AFEEF780280
:10013300CEC313CE13D8F9FF1205A7EB1B70011A18
:10014300EB4A70CDE4FAFBC2A3EBAE027802CEC356
:1001530013CE13D8F9FF1205A7D2A3C374649BFF70
:10016300E49AFEEF7802CEC313CE13D8F9FF12053B
:10017300A70BBB00010AEB64644A70CB7A007B6473
:10018300C2A3EBAE027802CEC313CE13D8F9FF128B
:1001930005A7D2A3C374649BFFE49AFEEF7802CE53
:1001A300C313CE13D8F9FF1205A7EB1B70011AEB8B
:1001B3004A70CDE4FAFBC2A4EBAE027802CEC313BD
:1001C300CE13D8F9FF1205A7D2A4C374649BFFE42E
:1001D3009AFEEF7802CEC313CE13D8F9FF1205A708
:1001E3000BBB00010AEB64644A70CB7A007B64C2E8
:1001F300A4EBAE027802CEC313CE13D8F9FF1205D7
:10020300A7D2A4C374649BFFE49AFEEF7802CEC323
:1002130013CE13D8F9FF1205A7EB1B70011AEB4A93
:1002230070CDE4FAFBC2A5EBAE027802CEC313CEC7
:1002330013D8F9FF1205A7D2A5C374649BFFE49AF0
:10024300FEEF7802CEC313CE13D8F9FF1205A70B26
:10025300BB00010AEB64644A70CB7A007B64C2A5DD
:10026300EBAE027802CEC313CE13D8F9FF1205A763
:10027300D2A5C374649BFFE49AFEEF7802CEC31346
:10028300CE13D8F9FF1205A7EB1B70011AEB4A70C6
:10029300CDE4FAFBC2A6EBAE027802CEC313CE13B3
:1002A300D8F9FF1205A7D2A6C374649BFFE49AFE94
:1002B300EF7802CEC313CE13D8F9FF1205A70BBBF9
:1002C30000010AEB64644A70CB7A007B64C2A6EB3C
:1002D300AE027802CEC313CE13D8F9FF1205A7D20C
:1002E300A6C374649BFFE49AFEEF7802CEC313CED9
:1002F30013D8F9FF1205A7EB1B70011AEB4A70CD57
:10030300E4FAFBC2A7EBAE027802CEC313CE13D836
:10031300F9FF1205A7D2A7C374649BFFE49AFEEF0B
:100323007802CEC313CE13D8F9FF1205A70BBB0077
:10033300010AEB64644A70CB7A007B64C2A7EBAE1C
:10034300027802CEC313CE13D8F9FF1205A7D2A7A2
:10035300C374649BFFE49AFEEF7802CEC313CE13FB
:10036300D8F9FF1205A7EB1B70011AEB4A70CDE415
:10037300FAFBC2A6EBAE027802CEC313CE13D8F9B2
:10038300FF1205A7D2A6C374649BFFE49AFEEF781D
:1003930002CEC313CE13D8F9FF1205A70BBB00017E
:1003A3000AEB64644A70CB7A007B64C2A6EBAE02AC
:1003B3007802CEC313CE13D8F9FF1205A7D2A6C372
:1003C30074649BFFE49AFEEF7802CEC313CE13D876
:1003D300F9FF1205A7EB1B70011AEB4A70CDE4FA83
:1003E300FBC2A5EBAE027802CEC313CE13D8F9FF3E
:1003F3001205A7D2A5C374649BFFE49AFEEF7802AB
:10040300CEC313CE13D8F9FF1205A70BBB00010A05
:10041300EB64644A70CB7A007B64C2A5EBAE0278CE
:1004230002CEC313CE13D8F9FF1205A7D2A5C37406
:10043300649BFFE49AFEEF7802CEC313CE13D8F980
:10044300FF1205A7EB1B70011AEB4A70CDE4FAFB10
:10045300C2A4EBAE027802CEC313CE13D8F9FF12B7
:1004630005A7D2A4C374649BFFE49AFEEF7802CE7F
:10047300C313CE13D8F9FF1205A70BBB00010AEB78
:1004830064644A70CB7A007B64C2A4EBAE02780248
:10049300CEC313CE13D8F9FF1205A7D2A4C3746435
:1004A3009BFFE49AFEEF7802CEC313CE13D8F9FF75
:1004B3001205A7EB1B70011AEB4A70CDE4FAFBC2DD
:1004C300A3EBAE027802CEC313CE13D8F9FF120505
:1004D300A7D2A3C374649BFFE49AFEEF7802CEC352
:1004E30013CE13D8F9FF1205A70BBB00010AEB6467
:1004F300644A70CB7A007B64C2A3EBAE027802CE6F
:10050300C313CE13D8F9FF1205A7D2A3C374649BF8
:10051300FFE49AFEEF7802CEC313CE13D8F9FF128D
:1005230005A7EB1B70011AEB4A70CDE4FAFBC2A2DC
:10053300EBAE027802CEC313CE13D8F9FF1205A790
:10054300D2A2C374649BFFE49AFEEF7802CEC31376
:10055300CE13D8F9FF1205A70BBB00010AEB6464A5
:100563004A70CB7A007B64D3EB9400EA9400500387
:10057300020003C2A2EBAE027802CEC313CE13D89D
:10058300F9FF1205A7D2A2C374649BFFE49AFEEF9E
:100593007802CEC313CE13D8F9FF1205A7EB1B7055
:0405A300C61A80C331
:030000000205BC3A
:0C05BC00787FE4F6D8FD7581070200038B
:00000001FF
